{
  "contractName": "MBNFT",
  "abi": [
    {
      "inputs": [
        {
          "internalType": "uint256",
          "name": "_startDate",
          "type": "uint256"
        },
        {
          "internalType": "uint256",
          "name": "_endDate",
          "type": "uint256"
        }
      ],
      "stateMutability": "nonpayable",
      "type": "constructor"
    },
    {
      "inputs": [
        {
          "internalType": "address",
          "name": "sender",
          "type": "address"
        },
        {
          "internalType": "uint256",
          "name": "tokenId",
          "type": "uint256"
        },
        {
          "internalType": "address",
          "name": "owner",
          "type": "address"
        }
      ],
      "name": "ERC721IncorrectOwner",
      "type": "error"
    },
    {
      "inputs": [
        {
          "internalType": "address",
          "name": "operator",
          "type": "address"
        },
        {
          "internalType": "uint256",
          "name": "tokenId",
          "type": "uint256"
        }
      ],
      "name": "ERC721InsufficientApproval",
      "type": "error"
    },
    {
      "inputs": [
        {
          "internalType": "address",
          "name": "approver",
          "type": "address"
        }
      ],
      "name": "ERC721InvalidApprover",
      "type": "error"
    },
    {
      "inputs": [
        {
          "internalType": "address",
          "name": "operator",
          "type": "address"
        }
      ],
      "name": "ERC721InvalidOperator",
      "type": "error"
    },
    {
      "inputs": [
        {
          "internalType": "address",
          "name": "owner",
          "type": "address"
        }
      ],
      "name": "ERC721InvalidOwner",
      "type": "error"
    },
    {
      "inputs": [
        {
          "internalType": "address",
          "name": "receiver",
          "type": "address"
        }
      ],
      "name": "ERC721InvalidReceiver",
      "type": "error"
    },
    {
      "inputs": [
        {
          "internalType": "address",
          "name": "sender",
          "type": "address"
        }
      ],
      "name": "ERC721InvalidSender",
      "type": "error"
    },
    {
      "inputs": [
        {
          "internalType": "uint256",
          "name": "tokenId",
          "type": "uint256"
        }
      ],
      "name": "ERC721NonexistentToken",
      "type": "error"
    },
    {
      "anonymous": false,
      "inputs": [
        {
          "indexed": true,
          "internalType": "address",
          "name": "owner",
          "type": "address"
        },
        {
          "indexed": true,
          "internalType": "address",
          "name": "approved",
          "type": "address"
        },
        {
          "indexed": true,
          "internalType": "uint256",
          "name": "tokenId",
          "type": "uint256"
        }
      ],
      "name": "Approval",
      "type": "event"
    },
    {
      "anonymous": false,
      "inputs": [
        {
          "indexed": true,
          "internalType": "address",
          "name": "owner",
          "type": "address"
        },
        {
          "indexed": true,
          "internalType": "address",
          "name": "operator",
          "type": "address"
        },
        {
          "indexed": false,
          "internalType": "bool",
          "name": "approved",
          "type": "bool"
        }
      ],
      "name": "ApprovalForAll",
      "type": "event"
    },
    {
      "anonymous": false,
      "inputs": [
        {
          "indexed": false,
          "internalType": "uint256",
          "name": "_fromTokenId",
          "type": "uint256"
        },
        {
          "indexed": false,
          "internalType": "uint256",
          "name": "_toTokenId",
          "type": "uint256"
        }
      ],
      "name": "BatchMetadataUpdate",
      "type": "event"
    },
    {
      "anonymous": false,
      "inputs": [
        {
          "indexed": false,
          "internalType": "uint256",
          "name": "_tokenId",
          "type": "uint256"
        }
      ],
      "name": "MetadataUpdate",
      "type": "event"
    },
    {
      "anonymous": false,
      "inputs": [
        {
          "indexed": true,
          "internalType": "address",
          "name": "from",
          "type": "address"
        },
        {
          "indexed": true,
          "internalType": "address",
          "name": "to",
          "type": "address"
        },
        {
          "indexed": true,
          "internalType": "uint256",
          "name": "tokenId",
          "type": "uint256"
        }
      ],
      "name": "Transfer",
      "type": "event"
    },
    {
      "inputs": [
        {
          "internalType": "uint256",
          "name": "",
          "type": "uint256"
        }
      ],
      "name": "_tokenURIs",
      "outputs": [
        {
          "internalType": "string",
          "name": "",
          "type": "string"
        }
      ],
      "stateMutability": "view",
      "type": "function"
    },
    {
      "inputs": [
        {
          "internalType": "address",
          "name": "to",
          "type": "address"
        },
        {
          "internalType": "uint256",
          "name": "tokenId",
          "type": "uint256"
        }
      ],
      "name": "approve",
      "outputs": [],
      "stateMutability": "nonpayable",
      "type": "function"
    },
    {
      "inputs": [
        {
          "internalType": "address",
          "name": "owner",
          "type": "address"
        }
      ],
      "name": "balanceOf",
      "outputs": [
        {
          "internalType": "uint256",
          "name": "",
          "type": "uint256"
        }
      ],
      "stateMutability": "view",
      "type": "function"
    },
    {
      "inputs": [],
      "name": "endDate",
      "outputs": [
        {
          "internalType": "uint256",
          "name": "",
          "type": "uint256"
        }
      ],
      "stateMutability": "view",
      "type": "function"
    },
    {
      "inputs": [
        {
          "internalType": "uint256",
          "name": "tokenId",
          "type": "uint256"
        }
      ],
      "name": "getApproved",
      "outputs": [
        {
          "internalType": "address",
          "name": "",
          "type": "address"
        }
      ],
      "stateMutability": "view",
      "type": "function"
    },
    {
      "inputs": [
        {
          "internalType": "address",
          "name": "owner",
          "type": "address"
        },
        {
          "internalType": "address",
          "name": "operator",
          "type": "address"
        }
      ],
      "name": "isApprovedForAll",
      "outputs": [
        {
          "internalType": "bool",
          "name": "",
          "type": "bool"
        }
      ],
      "stateMutability": "view",
      "type": "function"
    },
    {
      "inputs": [],
      "name": "name",
      "outputs": [
        {
          "internalType": "string",
          "name": "",
          "type": "string"
        }
      ],
      "stateMutability": "view",
      "type": "function"
    },
    {
      "inputs": [
        {
          "internalType": "uint256",
          "name": "tokenId",
          "type": "uint256"
        }
      ],
      "name": "ownerOf",
      "outputs": [
        {
          "internalType": "address",
          "name": "",
          "type": "address"
        }
      ],
      "stateMutability": "view",
      "type": "function"
    },
    {
      "inputs": [
        {
          "internalType": "address",
          "name": "",
          "type": "address"
        }
      ],
      "name": "receipts",
      "outputs": [
        {
          "internalType": "string",
          "name": "",
          "type": "string"
        }
      ],
      "stateMutability": "view",
      "type": "function"
    },
    {
      "inputs": [
        {
          "internalType": "address",
          "name": "from",
          "type": "address"
        },
        {
          "internalType": "address",
          "name": "to",
          "type": "address"
        },
        {
          "internalType": "uint256",
          "name": "tokenId",
          "type": "uint256"
        }
      ],
      "name": "safeTransferFrom",
      "outputs": [],
      "stateMutability": "nonpayable",
      "type": "function"
    },
    {
      "inputs": [
        {
          "internalType": "address",
          "name": "from",
          "type": "address"
        },
        {
          "internalType": "address",
          "name": "to",
          "type": "address"
        },
        {
          "internalType": "uint256",
          "name": "tokenId",
          "type": "uint256"
        },
        {
          "internalType": "bytes",
          "name": "data",
          "type": "bytes"
        }
      ],
      "name": "safeTransferFrom",
      "outputs": [],
      "stateMutability": "nonpayable",
      "type": "function"
    },
    {
      "inputs": [
        {
          "internalType": "address",
          "name": "operator",
          "type": "address"
        },
        {
          "internalType": "bool",
          "name": "approved",
          "type": "bool"
        }
      ],
      "name": "setApprovalForAll",
      "outputs": [],
      "stateMutability": "nonpayable",
      "type": "function"
    },
    {
      "inputs": [],
      "name": "startDate",
      "outputs": [
        {
          "internalType": "uint256",
          "name": "",
          "type": "uint256"
        }
      ],
      "stateMutability": "view",
      "type": "function"
    },
    {
      "inputs": [
        {
          "internalType": "bytes4",
          "name": "interfaceId",
          "type": "bytes4"
        }
      ],
      "name": "supportsInterface",
      "outputs": [
        {
          "internalType": "bool",
          "name": "",
          "type": "bool"
        }
      ],
      "stateMutability": "view",
      "type": "function"
    },
    {
      "inputs": [],
      "name": "symbol",
      "outputs": [
        {
          "internalType": "string",
          "name": "",
          "type": "string"
        }
      ],
      "stateMutability": "view",
      "type": "function"
    },
    {
      "inputs": [
        {
          "internalType": "address",
          "name": "from",
          "type": "address"
        },
        {
          "internalType": "address",
          "name": "to",
          "type": "address"
        },
        {
          "internalType": "uint256",
          "name": "tokenId",
          "type": "uint256"
        }
      ],
      "name": "transferFrom",
      "outputs": [],
      "stateMutability": "nonpayable",
      "type": "function"
    },
    {
      "inputs": [
        {
          "internalType": "address",
          "name": "to",
          "type": "address"
        },
        {
          "internalType": "string",
          "name": "tokenURI",
          "type": "string"
        },
        {
          "internalType": "string",
          "name": "receipt",
          "type": "string"
        }
      ],
      "name": "mintNFT",
      "outputs": [
        {
          "internalType": "uint256",
          "name": "",
          "type": "uint256"
        }
      ],
      "stateMutability": "nonpayable",
      "type": "function"
    },
    {
      "inputs": [
        {
          "internalType": "uint256",
          "name": "tokenId",
          "type": "uint256"
        }
      ],
      "name": "tokenURI",
      "outputs": [
        {
          "internalType": "string",
          "name": "",
          "type": "string"
        }
      ],
      "stateMutability": "view",
      "type": "function"
    }
  ],
  "bytecode": "0x608060405234801562000010575f80fd5b506040516200287b3803806200287b833981810160405281019062000036919062000119565b6040518060400160405280601181526020017f4d657263656465732d42656e7a204e46540000000000000000000000000000008152506040518060400160405280600681526020017f4d422d4e46540000000000000000000000000000000000000000000000000000815250815f9081620000b29190620003b9565b508060019081620000c49190620003b9565b505050816007819055508060088190555050506200049d565b5f80fd5b5f819050919050565b620000f581620000e1565b811462000100575f80fd5b50565b5f815190506200011381620000ea565b92915050565b5f8060408385031215620001325762000131620000dd565b5b5f620001418582860162000103565b9250506020620001548582860162000103565b9150509250929050565b5f81519050919050565b7f4e487b71000000000000000000000000000000000000000000000000000000005f52604160045260245ffd5b7f4e487b71000000000000000000000000000000000000000000000000000000005f52602260045260245ffd5b5f6002820490506001821680620001da57607f821691505b602082108103620001f057620001ef62000195565b5b50919050565b5f819050815f5260205f209050919050565b5f6020601f8301049050919050565b5f82821b905092915050565b5f60088302620002547fffffffffffffffffffffffffffffffffffffffffffffffffffffffffffffffff8262000217565b62000260868362000217565b95508019841693508086168417925050509392505050565b5f819050919050565b5f620002a16200029b6200029584620000e1565b62000278565b620000e1565b9050919050565b5f819050919050565b620002bc8362000281565b620002d4620002cb82620002a8565b84845462000223565b825550505050565b5f90565b620002ea620002dc565b620002f7818484620002b1565b505050565b5b818110156200031e57620003125f82620002e0565b600181019050620002fd565b5050565b601f8211156200036d576200033781620001f6565b620003428462000208565b8101602085101562000352578190505b6200036a620003618562000208565b830182620002fc565b50505b505050565b5f82821c905092915050565b5f6200038f5f198460080262000372565b1980831691505092915050565b5f620003a983836200037e565b9150826002028217905092915050565b620003c4826200015e565b67ffffffffffffffff811115620003e057620003df62000168565b5b620003ec8254620001c2565b620003f982828562000322565b5f60209050601f8311600181146200042f575f84156200041a578287015190505b6200042685826200039c565b86555062000495565b601f1984166200043f86620001f6565b5f5b82811015620004685784890151825560018201915060208501945060208101905062000441565b8683101562000488578489015162000484601f8916826200037e565b8355505b6001600288020188555050505b505050505050565b6123d080620004ab5f395ff3fe608060405234801561000f575f80fd5b5060043610610114575f3560e01c80636352211e116100a0578063a3ee38ae1161006f578063a3ee38ae14610302578063b88d4fde14610332578063c24a0f8b1461034e578063c87b56dd1461036c578063e985e9c51461039c57610114565b80636352211e1461026857806370a082311461029857806395d89b41146102c8578063a22cb465146102e657610114565b80630b97bc86116100e75780630b97bc86146101b25780630bb78ec1146101d057806323b872dd1461020057806342842e0e1461021c5780634de4797b1461023857610114565b806301ffc9a71461011857806306fdde0314610148578063081812fc14610166578063095ea7b314610196575b5f80fd5b610132600480360381019061012d9190611821565b6103cc565b60405161013f9190611866565b60405180910390f35b61015061042c565b60405161015d9190611909565b60405180910390f35b610180600480360381019061017b919061195c565b6104bb565b60405161018d91906119c6565b60405180910390f35b6101b060048036038101906101ab9190611a09565b6104d6565b005b6101ba6104ec565b6040516101c79190611a56565b60405180910390f35b6101ea60048036038101906101e5919061195c565b6104f2565b6040516101f79190611909565b60405180910390f35b61021a60048036038101906102159190611a6f565b61058d565b005b61023660048036038101906102319190611a6f565b61068c565b005b610252600480360381019061024d9190611abf565b6106ab565b60405161025f9190611909565b60405180910390f35b610282600480360381019061027d919061195c565b610746565b60405161028f91906119c6565b60405180910390f35b6102b260048036038101906102ad9190611abf565b610757565b6040516102bf9190611a56565b60405180910390f35b6102d061080d565b6040516102dd9190611909565b60405180910390f35b61030060048036038101906102fb9190611b14565b61089d565b005b61031c60048036038101906103179190611c7e565b6108b3565b6040516103299190611a56565b60405180910390f35b61034c60048036038101906103479190611da4565b610a38565b005b610356610a55565b6040516103639190611a56565b60405180910390f35b6103866004803603810190610381919061195c565b610a5b565b6040516103939190611909565b60405180910390f35b6103b660048036038101906103b19190611e24565b610afc565b6040516103c39190611866565b60405180910390f35b5f634906490660e01b7bffffffffffffffffffffffffffffffffffffffffffffffffffffffff1916827bffffffffffffffffffffffffffffffffffffffffffffffffffffffff19161480610425575061042482610b8a565b5b9050919050565b60605f805461043a90611e8f565b80601f016020809104026020016040519081016040528092919081815260200182805461046690611e8f565b80156104b15780601f10610488576101008083540402835291602001916104b1565b820191905f5260205f20905b81548152906001019060200180831161049457829003601f168201915b5050505050905090565b5f6104c582610c6b565b506104cf82610cf1565b9050919050565b6104e882826104e3610d2a565b610d31565b5050565b60075481565b600b602052805f5260405f205f91509050805461050e90611e8f565b80601f016020809104026020016040519081016040528092919081815260200182805461053a90611e8f565b80156105855780601f1061055c57610100808354040283529160200191610585565b820191905f5260205f20905b81548152906001019060200180831161056857829003601f168201915b505050505081565b5f73ffffffffffffffffffffffffffffffffffffffff168273ffffffffffffffffffffffffffffffffffffffff16036105fd575f6040517f64a0ae920000000000000000000000000000000000000000000000000000000081526004016105f491906119c6565b60405180910390fd5b5f610610838361060b610d2a565b610d43565b90508373ffffffffffffffffffffffffffffffffffffffff168173ffffffffffffffffffffffffffffffffffffffff1614610686578382826040517f64283d7b00000000000000000000000000000000000000000000000000000000815260040161067d93929190611ebf565b60405180910390fd5b50505050565b6106a683838360405180602001604052805f815250610a38565b505050565b600a602052805f5260405f205f9150905080546106c790611e8f565b80601f01602080910402602001604051908101604052809291908181526020018280546106f390611e8f565b801561073e5780601f106107155761010080835404028352916020019161073e565b820191905f5260205f20905b81548152906001019060200180831161072157829003601f168201915b505050505081565b5f61075082610c6b565b9050919050565b5f8073ffffffffffffffffffffffffffffffffffffffff168273ffffffffffffffffffffffffffffffffffffffff16036107c8575f6040517f89c62b640000000000000000000000000000000000000000000000000000000081526004016107bf91906119c6565b60405180910390fd5b60035f8373ffffffffffffffffffffffffffffffffffffffff1673ffffffffffffffffffffffffffffffffffffffff1681526020019081526020015f20549050919050565b60606001805461081c90611e8f565b80601f016020809104026020016040519081016040528092919081815260200182805461084890611e8f565b80156108935780601f1061086a57610100808354040283529160200191610893565b820191905f5260205f20905b81548152906001019060200180831161087657829003601f168201915b5050505050905090565b6108af6108a8610d2a565b8383610f4e565b5050565b5f60075442101580156108c857506008544211155b610907576040517f08c379a00000000000000000000000000000000000000000000000000000000081526004016108fe90611f3e565b60405180910390fd5b5f61091185610757565b14610951576040517f08c379a000000000000000000000000000000000000000000000000000000000815260040161094890611fa6565b60405180910390fd5b600560095f015410610998576040517f08c379a000000000000000000000000000000000000000000000000000000000815260040161098f9061200e565b60405180910390fd5b6109a260096110b7565b5f6109ad60096110cb565b905083600b5f8381526020019081526020015f2090816109cd91906121c9565b506109d885826110d7565b6109e281856110f4565b82600a5f8773ffffffffffffffffffffffffffffffffffffffff1673ffffffffffffffffffffffffffffffffffffffff1681526020019081526020015f209081610a2c91906121c9565b50809150509392505050565b610a4384848461058d565b610a4f84848484611117565b50505050565b60085481565b6060600b5f8381526020019081526020015f208054610a7990611e8f565b80601f0160208091040260200160405190810160405280929190818152602001828054610aa590611e8f565b8015610af05780601f10610ac757610100808354040283529160200191610af0565b820191905f5260205f20905b815481529060010190602001808311610ad357829003601f168201915b50505050509050919050565b5f60055f8473ffffffffffffffffffffffffffffffffffffffff1673ffffffffffffffffffffffffffffffffffffffff1681526020019081526020015f205f8373ffffffffffffffffffffffffffffffffffffffff1673ffffffffffffffffffffffffffffffffffffffff1681526020019081526020015f205f9054906101000a900460ff16905092915050565b5f7f80ac58cd000000000000000000000000000000000000000000000000000000007bffffffffffffffffffffffffffffffffffffffffffffffffffffffff1916827bffffffffffffffffffffffffffffffffffffffffffffffffffffffff19161480610c5457507f5b5e139f000000000000000000000000000000000000000000000000000000007bffffffffffffffffffffffffffffffffffffffffffffffffffffffff1916827bffffffffffffffffffffffffffffffffffffffffffffffffffffffff1916145b80610c645750610c63826112c9565b5b9050919050565b5f80610c7683611332565b90505f73ffffffffffffffffffffffffffffffffffffffff168173ffffffffffffffffffffffffffffffffffffffff1603610ce857826040517f7e273289000000000000000000000000000000000000000000000000000000008152600401610cdf9190611a56565b60405180910390fd5b80915050919050565b5f60045f8381526020019081526020015f205f9054906101000a900473ffffffffffffffffffffffffffffffffffffffff169050919050565b5f33905090565b610d3e838383600161136b565b505050565b5f80610d4e84611332565b90505f73ffffffffffffffffffffffffffffffffffffffff168373ffffffffffffffffffffffffffffffffffffffff1614610d8f57610d8e81848661152a565b5b5f73ffffffffffffffffffffffffffffffffffffffff168173ffffffffffffffffffffffffffffffffffffffff1614610e1a57610dce5f855f8061136b565b600160035f8373ffffffffffffffffffffffffffffffffffffffff1673ffffffffffffffffffffffffffffffffffffffff1681526020019081526020015f205f82825403925050819055505b5f73ffffffffffffffffffffffffffffffffffffffff168573ffffffffffffffffffffffffffffffffffffffff1614610e9957600160035f8773ffffffffffffffffffffffffffffffffffffffff1673ffffffffffffffffffffffffffffffffffffffff1681526020019081526020015f205f82825401925050819055505b8460025f8681526020019081526020015f205f6101000a81548173ffffffffffffffffffffffffffffffffffffffff021916908373ffffffffffffffffffffffffffffffffffffffff160217905550838573ffffffffffffffffffffffffffffffffffffffff168273ffffffffffffffffffffffffffffffffffffffff167fddf252ad1be2c89b69c2b068fc378daa952ba7f163c4a11628f55a4df523b3ef60405160405180910390a4809150509392505050565b5f73ffffffffffffffffffffffffffffffffffffffff168273ffffffffffffffffffffffffffffffffffffffff1603610fbe57816040517f5b08ba18000000000000000000000000000000000000000000000000000000008152600401610fb591906119c6565b60405180910390fd5b8060055f8573ffffffffffffffffffffffffffffffffffffffff1673ffffffffffffffffffffffffffffffffffffffff1681526020019081526020015f205f8473ffffffffffffffffffffffffffffffffffffffff1673ffffffffffffffffffffffffffffffffffffffff1681526020019081526020015f205f6101000a81548160ff0219169083151502179055508173ffffffffffffffffffffffffffffffffffffffff168373ffffffffffffffffffffffffffffffffffffffff167f17307eab39ab6107e8899845ad3d59bd9653f200f220920489ca2b5937696c31836040516110aa9190611866565b60405180910390a3505050565b6001815f015f828254019250508190555050565b5f815f01549050919050565b6110f0828260405180602001604052805f8152506115ed565b5050565b80600b5f8481526020019081526020015f20908161111291906121c9565b505050565b5f8373ffffffffffffffffffffffffffffffffffffffff163b11156112c3578273ffffffffffffffffffffffffffffffffffffffff1663150b7a0261115a610d2a565b8685856040518563ffffffff1660e01b815260040161117c94939291906122ea565b6020604051808303815f875af19250505080156111b757506040513d601f19601f820116820180604052508101906111b49190612348565b60015b611238573d805f81146111e5576040519150601f19603f3d011682016040523d82523d5f602084013e6111ea565b606091505b505f81510361123057836040517f64a0ae9200000000000000000000000000000000000000000000000000000000815260040161122791906119c6565b60405180910390fd5b805181602001fd5b63150b7a0260e01b7bffffffffffffffffffffffffffffffffffffffffffffffffffffffff1916817bffffffffffffffffffffffffffffffffffffffffffffffffffffffff1916146112c157836040517f64a0ae920000000000000000000000000000000000000000000000000000000081526004016112b891906119c6565b60405180910390fd5b505b50505050565b5f7f01ffc9a7000000000000000000000000000000000000000000000000000000007bffffffffffffffffffffffffffffffffffffffffffffffffffffffff1916827bffffffffffffffffffffffffffffffffffffffffffffffffffffffff1916149050919050565b5f60025f8381526020019081526020015f205f9054906101000a900473ffffffffffffffffffffffffffffffffffffffff169050919050565b80806113a357505f73ffffffffffffffffffffffffffffffffffffffff168273ffffffffffffffffffffffffffffffffffffffff1614155b156114d5575f6113b284610c6b565b90505f73ffffffffffffffffffffffffffffffffffffffff168373ffffffffffffffffffffffffffffffffffffffff161415801561141c57508273ffffffffffffffffffffffffffffffffffffffff168173ffffffffffffffffffffffffffffffffffffffff1614155b801561142f575061142d8184610afc565b155b1561147157826040517fa9fbf51f00000000000000000000000000000000000000000000000000000000815260040161146891906119c6565b60405180910390fd5b81156114d357838573ffffffffffffffffffffffffffffffffffffffff168273ffffffffffffffffffffffffffffffffffffffff167f8c5be1e5ebec7d5bd14f71427d1e84f3dd0314c0f7b2291e5b200ac8c7c3b92560405160405180910390a45b505b8360045f8581526020019081526020015f205f6101000a81548173ffffffffffffffffffffffffffffffffffffffff021916908373ffffffffffffffffffffffffffffffffffffffff16021790555050505050565b611535838383611608565b6115e8575f73ffffffffffffffffffffffffffffffffffffffff168373ffffffffffffffffffffffffffffffffffffffff16036115a957806040517f7e2732890000000000000000000000000000000000000000000000000000000081526004016115a09190611a56565b60405180910390fd5b81816040517f177e802f0000000000000000000000000000000000000000000000000000000081526004016115df929190612373565b60405180910390fd5b505050565b6115f783836116c8565b6116035f848484611117565b505050565b5f8073ffffffffffffffffffffffffffffffffffffffff168373ffffffffffffffffffffffffffffffffffffffff16141580156116bf57508273ffffffffffffffffffffffffffffffffffffffff168473ffffffffffffffffffffffffffffffffffffffff161480611680575061167f8484610afc565b5b806116be57508273ffffffffffffffffffffffffffffffffffffffff166116a683610cf1565b73ffffffffffffffffffffffffffffffffffffffff16145b5b90509392505050565b5f73ffffffffffffffffffffffffffffffffffffffff168273ffffffffffffffffffffffffffffffffffffffff1603611738575f6040517f64a0ae9200000000000000000000000000000000000000000000000000000000815260040161172f91906119c6565b60405180910390fd5b5f61174483835f610d43565b90505f73ffffffffffffffffffffffffffffffffffffffff168173ffffffffffffffffffffffffffffffffffffffff16146117b6575f6040517f73c6ac6e0000000000000000000000000000000000000000000000000000000081526004016117ad91906119c6565b60405180910390fd5b505050565b5f604051905090565b5f80fd5b5f80fd5b5f7fffffffff0000000000000000000000000000000000000000000000000000000082169050919050565b611800816117cc565b811461180a575f80fd5b50565b5f8135905061181b816117f7565b92915050565b5f60208284031215611836576118356117c4565b5b5f6118438482850161180d565b91505092915050565b5f8115159050919050565b6118608161184c565b82525050565b5f6020820190506118795f830184611857565b92915050565b5f81519050919050565b5f82825260208201905092915050565b5f5b838110156118b657808201518184015260208101905061189b565b5f8484015250505050565b5f601f19601f8301169050919050565b5f6118db8261187f565b6118e58185611889565b93506118f5818560208601611899565b6118fe816118c1565b840191505092915050565b5f6020820190508181035f83015261192181846118d1565b905092915050565b5f819050919050565b61193b81611929565b8114611945575f80fd5b50565b5f8135905061195681611932565b92915050565b5f60208284031215611971576119706117c4565b5b5f61197e84828501611948565b91505092915050565b5f73ffffffffffffffffffffffffffffffffffffffff82169050919050565b5f6119b082611987565b9050919050565b6119c0816119a6565b82525050565b5f6020820190506119d95f8301846119b7565b92915050565b6119e8816119a6565b81146119f2575f80fd5b50565b5f81359050611a03816119df565b92915050565b5f8060408385031215611a1f57611a1e6117c4565b5b5f611a2c858286016119f5565b9250506020611a3d85828601611948565b9150509250929050565b611a5081611929565b82525050565b5f602082019050611a695f830184611a47565b92915050565b5f805f60608486031215611a8657611a856117c4565b5b5f611a93868287016119f5565b9350506020611aa4868287016119f5565b9250506040611ab586828701611948565b9150509250925092565b5f60208284031215611ad457611ad36117c4565b5b5f611ae1848285016119f5565b91505092915050565b611af38161184c565b8114611afd575f80fd5b50565b5f81359050611b0e81611aea565b92915050565b5f8060408385031215611b2a57611b296117c4565b5b5f611b37858286016119f5565b9250506020611b4885828601611b00565b9150509250929050565b5f80fd5b5f80fd5b7f4e487b71000000000000000000000000000000000000000000000000000000005f52604160045260245ffd5b611b90826118c1565b810181811067ffffffffffffffff82111715611baf57611bae611b5a565b5b80604052505050565b5f611bc16117bb565b9050611bcd8282611b87565b919050565b5f67ffffffffffffffff821115611bec57611beb611b5a565b5b611bf5826118c1565b9050602081019050919050565b828183375f83830152505050565b5f611c22611c1d84611bd2565b611bb8565b905082815260208101848484011115611c3e57611c3d611b56565b5b611c49848285611c02565b509392505050565b5f82601f830112611c6557611c64611b52565b5b8135611c75848260208601611c10565b91505092915050565b5f805f60608486031215611c9557611c946117c4565b5b5f611ca2868287016119f5565b935050602084013567ffffffffffffffff811115611cc357611cc26117c8565b5b611ccf86828701611c51565b925050604084013567ffffffffffffffff811115611cf057611cef6117c8565b5b611cfc86828701611c51565b9150509250925092565b5f67ffffffffffffffff821115611d2057611d1f611b5a565b5b611d29826118c1565b9050602081019050919050565b5f611d48611d4384611d06565b611bb8565b905082815260208101848484011115611d6457611d63611b56565b5b611d6f848285611c02565b509392505050565b5f82601f830112611d8b57611d8a611b52565b5b8135611d9b848260208601611d36565b91505092915050565b5f805f8060808587031215611dbc57611dbb6117c4565b5b5f611dc9878288016119f5565b9450506020611dda878288016119f5565b9350506040611deb87828801611948565b925050606085013567ffffffffffffffff811115611e0c57611e0b6117c8565b5b611e1887828801611d77565b91505092959194509250565b5f8060408385031215611e3a57611e396117c4565b5b5f611e47858286016119f5565b9250506020611e58858286016119f5565b9150509250929050565b7f4e487b71000000000000000000000000000000000000000000000000000000005f52602260045260245ffd5b5f6002820490506001821680611ea657607f821691505b602082108103611eb957611eb8611e62565b5b50919050565b5f606082019050611ed25f8301866119b7565b611edf6020830185611a47565b611eec60408301846119b7565b949350505050565b7f457870697265642074696d6500000000000000000000000000000000000000005f82015250565b5f611f28600c83611889565b9150611f3382611ef4565b602082019050919050565b5f6020820190508181035f830152611f5581611f1c565b9050919050565b7f416c7265616479204d696e7400000000000000000000000000000000000000005f82015250565b5f611f90600c83611889565b9150611f9b82611f5c565b602082019050919050565b5f6020820190508181035f830152611fbd81611f84565b9050919050565b7f457863656564204c696d697400000000000000000000000000000000000000005f82015250565b5f611ff8600c83611889565b915061200382611fc4565b602082019050919050565b5f6020820190508181035f83015261202581611fec565b9050919050565b5f819050815f5260205f209050919050565b5f6020601f8301049050919050565b5f82821b905092915050565b5f600883026120887fffffffffffffffffffffffffffffffffffffffffffffffffffffffffffffffff8261204d565b612092868361204d565b95508019841693508086168417925050509392505050565b5f819050919050565b5f6120cd6120c86120c384611929565b6120aa565b611929565b9050919050565b5f819050919050565b6120e6836120b3565b6120fa6120f2826120d4565b848454612059565b825550505050565b5f90565b61210e612102565b6121198184846120dd565b505050565b5b8181101561213c576121315f82612106565b60018101905061211f565b5050565b601f821115612181576121528161202c565b61215b8461203e565b8101602085101561216a578190505b61217e6121768561203e565b83018261211e565b50505b505050565b5f82821c905092915050565b5f6121a15f1984600802612186565b1980831691505092915050565b5f6121b98383612192565b9150826002028217905092915050565b6121d28261187f565b67ffffffffffffffff8111156121eb576121ea611b5a565b5b6121f58254611e8f565b612200828285612140565b5f60209050601f831160018114612231575f841561221f578287015190505b61222985826121ae565b865550612290565b601f19841661223f8661202c565b5f5b8281101561226657848901518255600182019150602085019450602081019050612241565b86831015612283578489015161227f601f891682612192565b8355505b6001600288020188555050505b505050505050565b5f81519050919050565b5f82825260208201905092915050565b5f6122bc82612298565b6122c681856122a2565b93506122d6818560208601611899565b6122df816118c1565b840191505092915050565b5f6080820190506122fd5f8301876119b7565b61230a60208301866119b7565b6123176040830185611a47565b818103606083015261232981846122b2565b905095945050505050565b5f81519050612342816117f7565b92915050565b5f6020828403121561235d5761235c6117c4565b5b5f61236a84828501612334565b91505092915050565b5f6040820190506123865f8301856119b7565b6123936020830184611a47565b939250505056fea2646970667358221220d3648b05892ab86a145801534ef8867adee2a1a03c01d539b1cfd4f0d8b400ff64736f6c63430008140033",
  "immutableReferences": {},
  "source": "// SPDX-License-Identifier: GPL-3.0\n\npragma solidity ^0.8.20;\n\nimport \"@openzeppelin/contracts/token/ERC721/extensions/ERC721URIStorage.sol\";\n\nimport \"@openzeppelin/contracts/utils/Counters.sol\";\n\n \n\ncontract MBNFT is ERC721URIStorage {\n    uint public startDate;\n    uint public endDate;\n\n    using Counters for Counters.Counter;\n    Counters.Counter private _tokenIds;\n\n    mapping(address => string) public  receipts;\n    mapping(uint256 => string) public _tokenURIs;\n\n    constructor(uint256 _startDate, uint256 _endDate) ERC721(\"Mercedes-Benz NFT\", \"MB-NFT\") {\n        startDate = _startDate;\n        endDate = _endDate;       \n    }\n\n    function mintNFT(address to,  string memory tokenURI,   string memory receipt ) public returns (uint256) {\n         \n        \n        require(block.timestamp >= startDate && block.timestamp <= endDate, \"Expired time\");\n        require(balanceOf(to) == 0, \"Already Mint\");\n        require(_tokenIds._value < 5, \"Exceed Limit\");\n        _tokenIds.increment();\n        \n        uint256 newItemId = _tokenIds.current();\n        _tokenURIs[newItemId]= tokenURI;\n        _safeMint(to, newItemId);\n        setTokenUri(newItemId, tokenURI);\n\n        receipts[to] = receipt;\n\n        return newItemId;\n    }\n\n    function setTokenUri(uint256 tokenId, string memory tokenURI) private {\n\n        _tokenURIs[tokenId] = tokenURI;\n    }\n\n \n    /// @notice function to allow third party like Opensea store our metadata off chain\n    function tokenURI(\n        uint256 tokenId\n    ) public view virtual override returns (string memory) {\n        return _tokenURIs[tokenId];\n    }\n\n \n\n\n}\n",
  "sourcePath": "/home/ha/Downloads/program/24-10/MB-NFT/contracts/MBNFT.sol",
  "compiler": {
    "name": "solc",
    "version": "0.8.20+commit.a1b79de6.Emscripten.clang"
  },
  "schemaVersion": "3.4.5",
  "updatedAt": "2023-10-24T15:41:57.716Z",
  "devdoc": {
    "errors": {
      "ERC721IncorrectOwner(address,uint256,address)": [
        {
          "details": "Indicates an error related to the ownership over a particular token. Used in transfers.",
          "params": {
            "owner": "Address of the current owner of a token.",
            "sender": "Address whose tokens are being transferred.",
            "tokenId": "Identifier number of a token."
          }
        }
      ],
      "ERC721InsufficientApproval(address,uint256)": [
        {
          "details": "Indicates a failure with the `operator`s approval. Used in transfers.",
          "params": {
            "operator": "Address that may be allowed to operate on tokens without being their owner.",
            "tokenId": "Identifier number of a token."
          }
        }
      ],
      "ERC721InvalidApprover(address)": [
        {
          "details": "Indicates a failure with the `approver` of a token to be approved. Used in approvals.",
          "params": {
            "approver": "Address initiating an approval operation."
          }
        }
      ],
      "ERC721InvalidOperator(address)": [
        {
          "details": "Indicates a failure with the `operator` to be approved. Used in approvals.",
          "params": {
            "operator": "Address that may be allowed to operate on tokens without being their owner."
          }
        }
      ],
      "ERC721InvalidOwner(address)": [
        {
          "details": "Indicates that an address can't be an owner. For example, `address(0)` is a forbidden owner in EIP-20. Used in balance queries.",
          "params": {
            "owner": "Address of the current owner of a token."
          }
        }
      ],
      "ERC721InvalidReceiver(address)": [
        {
          "details": "Indicates a failure with the token `receiver`. Used in transfers.",
          "params": {
            "receiver": "Address to which tokens are being transferred."
          }
        }
      ],
      "ERC721InvalidSender(address)": [
        {
          "details": "Indicates a failure with the token `sender`. Used in transfers.",
          "params": {
            "sender": "Address whose tokens are being transferred."
          }
        }
      ],
      "ERC721NonexistentToken(uint256)": [
        {
          "details": "Indicates a `tokenId` whose `owner` is the zero address.",
          "params": {
            "tokenId": "Identifier number of a token."
          }
        }
      ]
    },
    "events": {
      "Approval(address,address,uint256)": {
        "details": "Emitted when `owner` enables `approved` to manage the `tokenId` token."
      },
      "ApprovalForAll(address,address,bool)": {
        "details": "Emitted when `owner` enables or disables (`approved`) `operator` to manage all of its assets."
      },
      "BatchMetadataUpdate(uint256,uint256)": {
        "details": "This event emits when the metadata of a range of tokens is changed. So that the third-party platforms such as NFT market could timely update the images and related attributes of the NFTs."
      },
      "MetadataUpdate(uint256)": {
        "details": "This event emits when the metadata of a token is changed. So that the third-party platforms such as NFT market could timely update the images and related attributes of the NFT."
      },
      "Transfer(address,address,uint256)": {
        "details": "Emitted when `tokenId` token is transferred from `from` to `to`."
      }
    },
    "kind": "dev",
    "methods": {
      "approve(address,uint256)": {
        "details": "See {IERC721-approve}."
      },
      "balanceOf(address)": {
        "details": "See {IERC721-balanceOf}."
      },
      "getApproved(uint256)": {
        "details": "See {IERC721-getApproved}."
      },
      "isApprovedForAll(address,address)": {
        "details": "See {IERC721-isApprovedForAll}."
      },
      "name()": {
        "details": "See {IERC721Metadata-name}."
      },
      "ownerOf(uint256)": {
        "details": "See {IERC721-ownerOf}."
      },
      "safeTransferFrom(address,address,uint256)": {
        "details": "See {IERC721-safeTransferFrom}."
      },
      "safeTransferFrom(address,address,uint256,bytes)": {
        "details": "See {IERC721-safeTransferFrom}."
      },
      "setApprovalForAll(address,bool)": {
        "details": "See {IERC721-setApprovalForAll}."
      },
      "supportsInterface(bytes4)": {
        "details": "See {IERC165-supportsInterface}"
      },
      "symbol()": {
        "details": "See {IERC721Metadata-symbol}."
      },
      "transferFrom(address,address,uint256)": {
        "details": "See {IERC721-transferFrom}."
      }
    },
    "version": 1
  },
  "userdoc": {
    "kind": "user",
    "methods": {
      "tokenURI(uint256)": {
        "notice": "function to allow third party like Opensea store our metadata off chain"
      }
    },
    "version": 1
  }
}